:100000000C9463000C948B000C948B000C948B006C
:100010000C948B000C948B000C948B000C948B0034
:100020000C948B000C948B000C948B000C948B0024
:100030000C948B000C948B000C948B000C948B0014
:100040000C9436090C948B000C948A060C94BC0614
:100050000C948B000C948B000C948B000C948B00F4
:100060000C948B000C948B0000000008000201002F
:100070000003040700000000000000000102040863
:100080001020408001020408102001020408102002
:10009000040404040404040402020202020203032E
:1000A00003030303000000002300260029000000D2
:1000B0000000250028002B0000000000240027007D
:1000C0002A00AD00EC0611241FBECFEFD8E0DEBF42
:1000D000CDBF11E0A0E0B1E0E4EAFAE102C0059092
:1000E0000D92AE33B107D9F723E0AEE3B1E001C022
:1000F0001D92A133B207E1F710E0C6ECD0E004C0D6
:100100002297FE010E94B70AC23CD107C9F70E949C
:1001100027090C94500D0C94000026E040E855E2AD
:1001200060E070E087E892E00E9428068FE792E0A6
:100130000E94480462E08FE792E00E94D10244E00E
:1001400067E08FE792E00E94BA0180EC8093810221
:1001500064E38FE792E00C9407028FE792E00C943F
:10016000B601CF92DF92EF92FF920F931F93CF933E
:10017000DF9300D000D000D0CDB7DEB76EE372E0E1
:100180008FE792E00E94CE04882349F18FE3E82EA6
:1001900082E0F82E00E010E080913E0290E0081727
:1001A0001907CCF4F70161917F014AE050E087E83C
:1001B00092E00E94D60780913E0290E001970817D6
:1001C000190734F466E071E087E892E00E946D0759
:1001D0000F5F1F4FE1CF87E892E00E9476076EE243
:1001E00071E0CE0101960E94AE0887E892E00E947D
:1001F0004505892B09F47FC020E031E04EE351E052
:100200006AE087E892E00E940B087C010EE311E0AF
:10021000D12CFF24C8018E5391408E159F05ECF41C
:10022000F801C1908F018C2D992787FD90959C0135
:10023000205331092A30310530F46C2DCE0101965E
:100240000E940809E7CFFCE2CF1609F467C00E94BC
:10025000D30C892B09F062C079C08D819E81892BD6
:1002600091F0CE0101960E941B09ED2DF0E0E25CB9
:10027000FD4F6183D394D0923E026EE271E0CE01D5
:1002800001960E94C4088DB79EB7815491090FB69C
:10029000F8949EBF0FBE8DBFADB7BEB7119681E477
:1002A000EEE3F2E001900D928A95E1F78FE792E09C
:1002B0000E945B040FB6F894DEBF0FBECDBF8DB7B2
:1002C0009EB7815491090FB6F8949EBF0FBE8DBFA3
:1002D000ADB7BEB7119681E4EEE3F2E001900D9266
:1002E0008A95E1F78FE792E00E945B040FB6F894DD
:1002F000DEBF0FBECDBFCE0101960E9440082696FC
:100300000FB6F894DEBF0FBECDBFDF91CF911F9126
:100310000F91FF90EF90DF90CF9008958D819E8197
:10032000892B09F477CFCE0101960E941B09ED2D90
:10033000F0E0E25CFD4F6183D394D0923E026EE226
:1003400071E0CE0101960E94C40864CF68E071E0BC
:1003500087E892E00E946D076C2D87E892E00E948A
:100360006F0787E892E00E94760754CF20E6FC01F1
:10037000228308950F931F93CF93DF931F92CDB7DE
:10038000DEB78C012A981C99FECFC80149830E94D0
:100390003F054981642FC8010E943F052A9A0F90AA
:1003A000DF91CF911F910F910895CF92DF92EF923D
:1003B000FF920F931F93CF93DF9300D0CDB7DEB79B
:1003C0008C01F22E60642A981C99FECFC8014983E3
:1003D0005A830E943F054981E42EC42E5A81D52EAE
:1003E0008C2D8E198F1538F4F60161916F01C801BB
:1003F0000E943F05F5CF2A9A0F900F90DF91CF9181
:100400001F910F91FF90EF90DF90CF9008952A9861
:100410001C99FECF0E943F052A9A0895CF93DF933F
:10042000EC01642B2A981C99FECFCE010E943F0557
:1004300060E0CE010E943F052A9ADF91CF91089596
:10044000AF92BF92DF92EF92FF920F931F93CF93E1
:10045000DF931F92CDB7DEB78C01F62EE22E406CF3
:100460002A981C99FECF642FC80179830E943F050A
:10047000DF2CAF2C7981B72E8A2D8D198E1540F483
:1004800060E0C8010E943F05F50181935F01F4CF50
:100490002A9A0F90DF91CF911F910F91FF90EF90CB
:1004A000DF90BF90AF900895EF92FF920F931F934C
:1004B000CF93DF931F92CDB7DEB77C01062F142FA9
:1004C000FC018581861303C08681841711F1402FBA
:1004D00064E0C70129830E94BA01412F65E0C7018A
:1004E0000E94BA01F701058316832981222389F02E
:1004F000602F82E090E00E94080D612F83E090E081
:100500000F90DF91CF911F910F91FF90EF900C947E
:10051000080D0F90DF91CF911F910F91FF90EF90F9
:1005200008950F931F93CF93DF93EC01162F042FA1
:100530008F81861789F0462F69E0CE010E94BA01AB
:100540001F83002349F0612F84E090E0DF91CF9179
:100550001F910F910C94080DDF91CF911F910F9176
:1005600008950F931F93CF93DF93EC01162F042F61
:100570008C81861789F0462F6AE0CE010E94BA016D
:100580001C83002349F0612F80E090E0DF91CF9140
:100590001F910F910C94080DDF91CF911F910F9136
:1005A00008951F93CF93DF93EC01162F613069F00C
:1005B0006230B1F440E16DE00E94BA0147EA6EE0BA
:1005C000CE010E94BA0142E615C042E26DE00E94EF
:1005D000BA0141EB6EE0CE010E94BA014BE30AC0C2
:1005E00041E26DE00E94BA0142E66EE0CE010E9457
:1005F000BA0146E76FE0CE010E94BA011B83DF918A
:10060000CF911F910895CF93DF93EC0147E060E015
:100610000E94BA014EE261E0CE010E94BA0146E0BA
:1006200062E0CE010E94BA0147E063E0CE010E9481
:10063000BA014DE366E0CE010E94BA0146E067E0F0
:10064000CE010E94BA0145E068E0CE010E94BA01E5
:1006500020E047E465EBCE010E94540240E06FEFDA
:10066000CE010E94910240E060E0CE010E94B10202
:1006700048E06BE0CE010E94BA0140E06CE0CE01A0
:100680000E94BA0160E0CE010E94D1024AEC60E112
:10069000CE010E94BA0143E861E1CE010E94BA0195
:1006A00043E962E1CE010E94BA0142E263E1CE0178
:1006B0000E94BA0148EF64E1CE010E94BA0145E30D
:1006C00065E1CE010E94BA0147E066E1CE010E94D9
:1006D000BA0140E267E1CE010E94BA0148E168E157
:1006E000CE010E94BA0146E169E1CE010E94BA0141
:1006F0004CE66AE1CE010E94BA0143E46BE1CE010F
:100700000E94BA0140E46CE1CE010E94BA0141E9C5
:100710006DE1CE010E94BA0147E86EE1CE010E9470
:10072000BA014BE66FE1CE010E94BA014BEF60E2E5
:10073000CE010E94BA0146E561E2CE010E94BA01F3
:1007400040E162E2CE010E94BA0149EE63E2CE01CD
:100750000E94BA014AE264E2CE010E94BA0140E07E
:1007600065E2CE010E94BA014FE166E2CE010E942D
:10077000BA0141E467E2CE010E94BA0140E068E2BA
:10078000CE010E94BA0149E569E2CE010E94BA0198
:100790004FE76AE2CE010E94BA014FE36BE2CE015D
:1007A0000E94BA0141E86CE2CE010E94BA0145E321
:1007B0006DE2CE010E94BA0149E06EE2CE01DF9106
:1007C000CF910C94BA010F931F93CF93DF931F9295
:1007D000CDB7DEB78C0180E090E00E94000D8A303A
:1007E00028F440E0682FC8010E94B10282E090E046
:1007F0000E94000D682F83E090E069830E94000D45
:1008000069819FEF960F9E3F20F09FEF980F9E3FCC
:1008100028F420E0482FC8010E94540284E090E0B0
:100820000E94000D882351F040E0682FC8010F900E
:10083000DF91CF911F910F910C9491020F90DF9156
:10084000CF911F910F910895CF93DF93EC012A9AD6
:1008500085E090E00E948C092A988AE090E00E944E
:100860008C092A9A89E290E00E948C092A981C99A6
:10087000FECF60E3CE010E943F051C99FECF2A9A6D
:10088000CE010E940303CE01DF91CF910C94E303CC
:10089000CF93DF93EC010E94200560E082E00E948C
:1008A000FB09CE010E9424044A816EE3CE01DF9150
:1008B000CF910C94BA01EF92FF920F931F93CF93B5
:1008C000DF93CDB7DEB78C0182E0F801818364E36A
:1008D000C8010E94070240EC65E3C8010E940E02B5
:1008E000982F9F719D3021F08131A9F76AE3F0CFF5
:1008F00084EF91E00E948C09CE010996FC014191A0
:100900007F016FE3C8010E94BA012985A7016FE347
:10091000C8010E94D50165E3C8010E94070240ECAE
:1009200065E3C8010E940E028F718351833088F005
:1009300066E3C8010E9407026BE3C8010E94070238
:1009400064E3C8010E94070281E0F801818380E02E
:100950001EC04A9BFECF4A99FECF40EC6AE3C80115
:100960000E940E028F77FF24F3948111F12C66E32D
:10097000C8010E9407026BE3C8010E94070264E3FA
:10098000C8010E94070281E0F80181838F2DDF9169
:10099000CF911F910F91FF90EF9008950F931F93A8
:1009A000CF93DF938C01EB0189E00E946A0A892BC7
:1009B00009F440C040EC6BE3C8010E940E02982F7E
:1009C0009F7749F187FD27C040E86FE3C8010E9487
:1009D0000E0288838E33F8F4282F4FE3BE016F5F39
:1009E0007F4FC8010E94200240E86FE3C8010E94C7
:1009F0000E028FAF40E86FE3C8010E940E02FE01B5
:100A0000E05CFF4F982F9F779083982F991F99272D
:100A1000991F9EAF01C0188266E3C8010E940702B9
:100A20006AE3C8010E94070264E3C8010E9407024A
:100A3000888101C080E0DF91CF911F910F910895CF
:100A400061E08AE00E94340A61E08AE00E94FB09CA
:100A500061E08BE00E94FB0960E08CE00E94FB09F2
:100A600061E08DE00E94FB0961E08DE00E94340AA4
:100A700060E08BE00E94340A80E58CBD08956EBD75
:100A80000DB407FEFDCF8EB50895FC01818D228D3A
:100A900090E0805C9F4F821B91098F739927089586
:100AA000FC01918D828D981731F0828DE80FF11D38
:100AB000858D90E008958FEF9FEF0895FC01918D53
:100AC000828D981761F0828DDF01A80FB11D5D96B0
:100AD0008C91928D9F5F9F73928F90E008958FEF1E
:100AE0009FEF089582EE96E0892B49F080E090E038
:100AF000892B29F00E94E20681110C9400000895D0
:100B0000FC01848DDF01A80FB11DA35ABF4F2C91AA
:100B1000848D90E001968F739927848FA689B78979
:100B20002C93A089B1898C9180648C93938D848D52
:100B3000981306C00288F389E02D80818F7D808321
:100B40000895CF93DF93EC01888D8823C9F0EA895B
:100B5000FB89808185FD05C0A889B9898C9186FDB6
:100B60000FC00FB607FCF5CF808185FFF2CFA889B3
:100B7000B9898C9185FFEDCFCE010E948005E7CF2A
:100B8000DF91CF910895CF92DF92FF920F931F9341
:100B9000CF93DF931F92CDB7DEB76C0181E0D60112
:100BA00058968C9358975B969C915B975C968C912A
:100BB0005C97981307C05096ED91FC9151978081F6
:100BC00085FD2EC0F601038D10E00F5F1F4F0F73E0
:100BD0001127F02EF601848DF81211C00FB607FC14
:100BE000F9CFD6015096ED91FC915197808185FF08
:100BF000F1CFC60169830E9480056981EBCF838DA7
:100C0000E80FF11DE35AFF4F6083D6015B960C930A
:100C10005B975296ED91FC915397808180620CC056
:100C2000D6015696ED91FC91579760835096ED91C1
:100C3000FC91519780818064808381E090E00F90E7
:100C4000DF91CF911F910F91FF90DF90CF9008958A
:100C5000BF92CF92DF92EF92FF92CF93DF93EC019E
:100C60006A017B01B22EE889F98982E0808341150F
:100C700081EE580761057105A1F060E079E08DE330
:100C800090E0A70196010E94930A21503109410981
:100C900051095695479537952795211580E13807D5
:100CA00098F0E889F989108260E874E88EE190E0B4
:100CB000A70196010E94930A215031094109510967
:100CC0005695479537952795EC85FD853083EE85BC
:100CD000FF852083188EEC89FD89B082EA89FB8923
:100CE000808180618083EA89FB898081886080833C
:100CF000EA89FB89808180688083EA89FB89808119
:100D00008F7D8083DF91CF91FF90EF90DF90CF9028
:100D1000BF9008951F920F920FB60F9211242F9338
:100D20008F939F93EF93FF93E0919702F091980236
:100D30008081E0919D02F0919E0282FD12C090811F
:100D40008091A0028F5F8F732091A102821751F0D2
:100D5000E091A002F0E0E957FD4F958F8093A0024B
:100D600001C08081FF91EF919F918F912F910F9002
:100D70000FBE0F901F9018951F920F920FB60F92F3
:100D800011242F933F934F935F936F937F938F9390
:100D90009F93AF93BF93EF93FF9387E892E00E94F6
:100DA0008005FF91EF91BF91AF919F918F917F91BE
:100DB0006F915F914F913F912F910F900FBE0F90C8
:100DC0001F90189587E892E00E94450521E0892B45
:100DD00009F420E0822F089510928A02109289026D
:100DE00088EE93E0A0E0B0E080938B0290938C02B9
:100DF000A0938D02B0938E0280E291E090938802DE
:100E00008093870285EC90E0909394028093930204
:100E100084EC90E0909396028093950280EC90E0B1
:100E2000909398028093970281EC90E090939A02BD
:100E30008093990282EC90E090939C0280939B02B5
:100E400086EC90E090939E0280939D021092A00207
:100E50001092A1021092A2021092A3020895CF92C2
:100E6000DF92EF92FF920F931F93CF93DF937C015A
:100E70006A01EB0100E010E00C151D0571F06991AD
:100E8000D701ED91FC910190F081E02DC70109950A
:100E9000892B19F00F5F1F4FEFCFC801DF91CF9162
:100EA0001F910F91FF90EF90DF90CF900895611503
:100EB000710581F0DB010D900020E9F7AD01415093
:100EC0005109461B570BDC01ED91FC910280F38127
:100ED000E02D099480E090E008950C945707DC0120
:100EE000ED91FC910190F081E02D09946CE271E0AC
:100EF0000C9457078F929F92AF92BF92DF92EF921E
:100F0000FF920F931F93CF93DF93CDB7DEB7A197D7
:100F10000FB6F894DEBF0FBECDBF7C01F42FD52EE7
:100F2000CB0119A2223008F42AE08E010F5D1F4F79
:100F3000822E912CA12CB12C6F2F7D2DA501940117
:100F40000E94930AF22FD32ECA01015011096A3070
:100F500014F4E0E301C0E7E3E60FD801EC93232BA0
:100F6000242B252B49F7B801C7010E945707A196EA
:100F70000FB6F894DEBF0FBECDBFDF91CF911F91AA
:100F80000F91FF90EF90DF90BF90AF909F908F9068
:100F900008952115310541F4DC01ED91FC9101909A
:100FA000F081E02D642F09940C947A079A01462F62
:100FB00050E060E070E00C94C9070F931F93CF934B
:100FC000DF93EC010E948009688779878A879B8775
:100FD000E881F9810680F781E02DCE01099597FF20
:100FE00015C00E948009088519852A853B85601BEC
:100FF000710B820B930B0C811D812E813F81601739
:1010000071078207930720F38FEF9FEFDF91CF9156
:101010001F910F910895AF92BF92CF92DF92EF92FE
:10102000FF920F931F93CF93DF936C0179012115EA
:101030003105B9F08A01C0E0D0E0A62EBB24A7FCA0
:10104000B094C6010E94DD0797FD0EC08A159B056E
:1010500059F0F80181938F012196CE15DF0589F7AC
:1010600003C080E090E001C0CE01DF91CF911F91DD
:101070000F91FF90EF90DF90CF90BF90AF900895C9
:10108000FC01808191810C94530BCF93DF93EC0191
:1010900088819981009711F00E94530B1982188260
:1010A0001D821C821B821A82DF91CF9108950F93BB
:1010B0001F93CF93DF93EC018B016F5F7F4F88818C
:1010C00099810E94E20B009731F0998388831B83FA
:1010D0000A8381E001C080E0DF91CF911F910F91E1
:1010E0000895CF93DF93EC0188819981892B29F0B2
:1010F0008A819B818617970760F4CE010E9457086A
:10110000882341F08C819D81892B19F4E881F98134
:10111000108281E0DF91CF910895EF92FF920F93BB
:101120001F93CF93DF93EC017B018A01BA010E94E8
:101130007108811104C0CE010E94450807C01D83BB
:101140000C83B701888199810E94E40CCE01DF9164
:10115000CF911F910F91FF90EF900895FC011182A4
:10116000108213821282158214826115710559F062
:10117000FB0101900020E9F7AF0141505109461BE6
:10118000570B0C948D080895CF93DF93EC016115F4
:10119000710561F0FB0101900020E9F7AF014150BA
:1011A0005109461B570B0E948D0802C00E9445083A
:1011B000CE01DF91CF910895EF92FF920F931F938D
:1011C000CF93DF93EC017B010C811D8161157105CB
:1011D00011F480E016C04115510591F0040F151F60
:1011E000B8010E9471088823A1F3288139818C817C
:1011F0009D81B701820F931F0E94E40C1D830C8315
:1012000081E0DF91CF911F910F91FF90EF900895B2
:10121000CF93DF9300D0CDB7DEB769831A8241E068
:1012200050E0BE016F5F7F4F0E94DC080F900F906F
:10123000DF91CF910895FC0180819181009711F099
:101240000C94AC0C60E070E0CB01089508950E940E
:1012500097090E9426090E948D00C2E7D5E00E94EE
:10126000B1002097E1F30E947205F9CF1F920F920F
:101270000FB60F9211242F933F938F939F93AF93A9
:10128000BF938091250390912603A0912703B091ED
:1012900028033091240323E0230F2D3720F40196F7
:1012A000A11DB11D05C026E8230F0296A11DB11D89
:1012B000209324038093250390932603A093270370
:1012C000B09328038091290390912A03A0912B03C6
:1012D000B0912C030196A11DB11D80932903909319
:1012E0002A03A0932B03B0932C03BF91AF919F913E
:1012F0008F913F912F910F900FBE0F901F901895D7
:101300002FB7F894609125037091260380912703ED
:10131000909128032FBF08958230910538F0880FEF
:10132000991F880F991F05970197F1F708957894F1
:1013300084B5826084BD84B5816084BD85B58260DA
:1013400085BD85B5816085BDEEE6F0E08081816078
:101350008083E1E8F0E01082808182608083808178
:1013600081608083E0E8F0E0808181608083E1EB50
:10137000F0E0808184608083E0EBF0E08081816038
:101380008083EAE7F0E080818460808380818260EE
:1013900080838081816080838081806880831092D7
:1013A000C1000895833081F028F4813099F08230B3
:1013B000A1F008958730A9F08830B9F08430D1F4D5
:1013C000809180008F7D03C0809180008F77809313
:1013D0008000089584B58F7702C084B58F7D84BD69
:1013E00008958091B0008F7703C08091B0008F7D09
:1013F0008093B0000895CF93DF9390E0FC01E45810
:10140000FF4F2491FC01E057FF4F8491882349F15D
:1014100090E0880F991FFC01E854FF4FA591B4910B
:1014200082559F4FFC01C591D4919FB7611108C0AF
:10143000F8948C91209582238C93888182230AC012
:10144000623051F4F8948C91322F309583238C9331
:101450008881822B888304C0F8948C91822B8C9392
:101460009FBFDF91CF9108950F931F93CF93DF9389
:101470001F92CDB7DEB7282F30E0F901E859FF4FB2
:101480008491F901E458FF4F1491F901E057FF4F9F
:1014900004910023C9F0882321F069830E94D209B6
:1014A0006981E02FF0E0EE0FFF1FE255FF4FA5919D
:1014B000B4919FB7F8948C91611103C0109581236A
:1014C00001C0812B8C939FBF0F90DF91CF911F9113
:1014D0000F910895CF93DF93282F30E0F901E85959
:1014E000FF4F8491F901E458FF4FD491F901E0577F
:1014F000FF4FC491CC2391F081110E94D209EC2FAF
:10150000F0E0EE0FFF1FEC55FF4FA591B4912C9129
:101510002D2381E090E021F480E002C080E090E0A3
:10152000DF91CF910895A1E21A2EAA1BBB1BFD01EA
:101530000DC0AA1FBB1FEE1FFF1FA217B307E407B2
:10154000F50720F0A21BB30BE40BF50B661F771F0A
:10155000881F991F1A9469F76095709580959095EA
:101560009B01AC01BD01CF010895EE0FFF1F059057
:10157000F491E02D0994CF93DF938230910510F41C
:1015800082E090E0E0912F03F091300320E030E022
:10159000A0E0B0E0309739F14081518148175907F8
:1015A000B8F04817590771F482819381109729F098
:1015B00013969C938E9312972CC090933003809334
:1015C0002F0327C02115310531F04217530718F0BA
:1015D000A901DB0101C0EF019A01BD01DF01028019
:1015E000F381E02DD7CF21153105F9F0281B390BF8
:1015F0002430310580F48A819B816115710521F0C9
:10160000FB019383828304C09093300380932F0364
:10161000FE01329644C0FE01E20FF31F81939193C5
:1016200022503109398328833AC020912D0330910B
:101630002E03232B41F420910201309103013093BA
:101640002E0320932D0320910001309101012115DB
:10165000310541F42DB73EB7409104015091050189
:10166000241B350BE0912D03F0912E03E217F307B5
:10167000A0F42E1B3F0B2817390778F0AC014E5F02
:101680005F4F2417350748F04E0F5F1F50932E030E
:1016900040932D038193919302C0E0E0F0E0CF01ED
:1016A000DF91CF910895CF93DF93009709F487C01E
:1016B000FC01329713821282C0912F03D091300324
:1016C000209781F420813181280F391F80912D03CB
:1016D00090912E038217930779F5F0932E03E093F0
:1016E0002D036DC0DE0120E030E0AE17BF0750F4DF
:1016F00012964D915C9113979D014115510509F189
:10170000DA01F3CFB383A28340815181840F951F07
:101710008A179B0771F48D919C911197840F951FE7
:1017200002969183808312968D919C911397938357
:1017300082832115310529F4F0933003E0932F03C0
:101740003EC0D9011396FC93EE9312974D915D9193
:10175000A40FB51FEA17FB0779F480819181840FEC
:10176000951F0296D90111969C938E938281938145
:1017700013969C938E931297E0E0F0E08A819B8110
:10178000009719F0FE01EC01F9CFCE0102962881F5
:101790003981820F931F20912D0330912E0328173A
:1017A000390769F4309729F41092300310922F030F
:1017B00002C013821282D0932E03C0932D03DF91B7
:1017C000CF910895A0E0B0E0E8EEFBE00C941D0D91
:1017D000EC01CB01209719F40E94BB0AB8C0FE01AE
:1017E000E60FF71F9E0122503109E217F30708F4B4
:1017F000ACC0D9010D911C91119706171707B8F0CD
:101800000530110508F49FC0A8014450510946173E
:10181000570708F498C002501109061B170B0193D3
:1018200011936D937C93CF010E94530B8CC05B018D
:10183000A01AB10A4E01800E911EA0912F03B09103
:101840003003612C712C60E070E0109709F449C0FE
:10185000A815B905C9F5ED90FC901197670142E014
:10186000C40ED11CCA14DB0478F147018A189B0806
:10187000640142E0C40ED11C1296BC9012971396DC
:10188000AC91B5E0CB16D10440F0B282A383918233
:101890008082D9018D939C9309C00E5F1F4F0E0D5E
:1018A0001F1DF90111830083EB2DFA2F61157105BE
:1018B00031F0DB011396FC93EE93129744C0F09342
:1018C0003003E0932F033FC06D917C911197661612
:1018D000770608F43B01BD0112960D90BC91A02D36
:1018E000B4CF60912D0370912E0368157905E9F44A
:1018F00068167906D0F4409100015091010141151C
:10190000510541F44DB75EB7609104017091050136
:10191000461B570BE417F507C0F4F0932E03E09332
:101920002D03F901918380830EC00E94BB0A7C01C4
:10193000009759F0A801BE010E94DB0CCE010E9465
:10194000530BC70104C0CE0102C080E090E0CDB7C8
:10195000DEB7EEE00C94390D1F93FC019927882720
:10196000BC01E89411911032E9F3193010F01E30E7
:10197000C8F31B3251F01D3249F4689406C00E942E
:10198000EB0C610F711D811D911D119110531A30C7
:10199000B0F33EF490958095709561957F4F8F4F91
:1019A0009F4F1F910895911141C0803219F08950C5
:1019B0008550D0F70895FB01DC0102C001900D9223
:1019C00041505040D8F70895FB01DC0101900D9281
:1019D0000020E1F70895592F482F372F262F660F43
:1019E000771F881F991F660F771F881F991F620F27
:1019F000731F841F951F660F771F881F991F0895F7
:101A0000F999FECF92BD81BDF89A992780B50895C6
:101A1000262FF999FECF1FBA92BD81BD20BD0FB60A
:101A2000F894FA9AF99A0FBE019608959927882793
:101A300008952F923F924F925F926F927F928F9272
:101A40009F92AF92BF92CF92DF92EF92FF920F934D
:101A50001F93CF93DF93CDB7DEB7CA1BDB0B0FB657
:101A6000F894DEBF0FBECDBF09942A883988488814
:101A70005F846E847D848C849B84AA84B984C884AA
:101A8000DF80EE80FD800C811B81AA81B981CE0FA1
:101A9000D11D0FB6F894DEBF0FBECDBFED01089586
:041AA000F894FFCFE8
:101AA4000000310380002C00476F7420696E76615A
:101AB4006C69642064696769743A2000000000005E
:101AC400C3052F0745055E055005A1050D0A006EE7
:0E1AD400616E00696E66006F7666002E00007F
:00000001FF
